:100000000C94E7010C940F020C940F020C94510D08
:100010000C94510D0C94510D0C94C90D0C940F02BD
:100020000C940F020C940F020C940F020C940F020C
:100030000C940F020C940F020C940F020C940F02FC
:100040000C94AF0C0C940F020C941F0D0C94F90C33
:100050000C940F020C940F020C940F020C940F02DC
:100060000C940F020C940F026E616E00696E6600B4
:1000700000407A10F35A00A0724E18090010A5D45F
:10008000E80000E87648170000E40B54020000CABC
:100090009A3B000000E1F505000080969800000002
:1000A00040420F000000A086010000001027000061
:1000B0000000E803000000006400000000000A00E7
:1000C000000000000100000000002C76D888DC67EA
:1000D0004F0823DFC1DFAE59E1B1B796E5E3E45342
:1000E000C63AE651997696E8E6C28426EB898C9B5F
:1000F00062ED407C6FFCEFBC9C9F40F2BAA56FA5FF
:10010000F490055A2AF75C936B6CF9676DC11BFC80
:10011000E0E40D47FEF520E6B500D0ED902E03009B
:10012000943577050080841E080000204E0A0000E8
:1001300000C80C333333330F986E12831141EF8DA7
:100140002114893BE65516CFFEE6DB18D1844B38E7
:100150001BF77C1D901DA4BBE424203284725E2218
:100160008100C9F124ECA1E53D2741542D4D5353A5
:10017000544D0D0041542B53424449580D005342F5
:100180004449582074696D656F7574210D0A0057D4
:10019000616974696E6720666F72204D5353544DC8
:1001A0002072657472792E2E2E0D0A0057616974C3
:1001B000696E6720666F7220534244495820726509
:1001C0007472792E2E2E0D0A00534244495820662F
:1001D0006174616C210D0A005342444958207375C3
:1001E0006363657373210D0A000D0A00534244498D
:1001F00058204D4F20636F64653A200041542B53C3
:10020000424457540D00696E7465726E616C53659B
:100210006E64526563656976650D0A000000000032
:10022000240027002A0041542B43474D520D002043
:100230004E4F540000496E7465726E616C42656782
:10024000696E3A2073756363657373210D0A00202C
:10025000656E666F726365642E0D0A004D535354CC
:100260004D20776F726B61726F756E6420697300D9
:100270000D0A004669726D7761726520766572734A
:10028000696F6E2069732000556E6B6E6F776E20FC
:1002900046572076657273696F6E0D0A0041542BC4
:1002A0005342444D54413D300D0041542B53424480
:1002B0004D54413D310D00204E4F54000020656EDD
:1002C00061626C65642E0D0A0052696E6720616C74
:1002D0006572747320617265004E6F206D6F646586
:1002E0006D2064657465637465642E0D0A00415465
:1002F0000D0043616C6C696E6720696E7465726E87
:10030000616C426567696E0D0A00506F77657269AE
:100310006E67206F6E206D6F64656D2E2E2E0D0A38
:1003200000506F776572696E67206F6666206D6F2B
:1003300064656D2E2E2E0D0A000D0A003E3E200033
:100340003C3C20000D0A0057616974696E672066A5
:100350006F7220726573706F6E736520000000000D
:100360000800020100000304070000000000000074
:100370000053424452494E4720616C6572742073A9
:1003800065656E210D0A000D0A003E3E200000004A
:10039000000023002600290000000000250028009E
:1003A0002B000404040404040404020202020202F6
:1003B0000303030303030102040810204080010229
:1003C00004081020010204081020D30D1F15112469
:1003D0001FBECFEFD8E0DEBFCDBF24E0A8EEB1E076
:1003E00001C01D92A035B207E1F711E0A0E0B1E035
:1003F000E2EDFBE302C005900D92A83EB107D9F7EC
:1004000011E0C6EED1E004C02197FE010E946E1DEE
:10041000C53ED107C9F70E94900F0C94DC1D0C94C7
:100420000000FC01249101962111FBCF0895EF9269
:10043000FF920F931F93CF93DF937C01C42F66230A
:1004400021F08AE893E00E941102C7010E94110284
:10045000CC2321F087E893E00E941102009163030E
:1004600010916403E701FE016491662359F0D801FD
:10047000ED91FC910190F081E02DC8010995219644
:10048000892B89F7DF91CF911F910F91FF90EF900A
:100490000895833081F028F4813099F08230A9F0FA
:1004A00008958730A9F08830C9F08430B1F4809184
:1004B00080008F7D03C0809180008F7780938000C3
:1004C000089584B58F7784BD089584B58F7DFBCF63
:1004D0008091B0008F778093B00008958091B00034
:1004E0008F7DF9CFCF93DF93209171033091720309
:1004F0002F3F320791F03327F901E35AFC4F8491E3
:10050000F901EA54FC4FD491F901EE55FC4FC49126
:10051000C11107C081E08093750380E0DF91CF9126
:10052000089581110E944902EC2FF0E0EE0FFF1FA9
:10053000E257FC4FA591B491EC91ED2359F3EDCF27
:100540001F93CF93DF93282F30E0F901E35AFC4F3C
:100550008491F901EA54FC4FD491F901EE55FC4F16
:10056000C491CC23A9F0162F81110E944902EC2FCF
:10057000F0E0EE0FFF1FE856FC4FA591B4918FB746
:10058000F894EC91111108C0D095DE23DC938FBF55
:10059000DF91CF911F910895DE2BF8CFCF93DF939A
:1005A00090E0FC01EA54FC4F24918E559C4FFC01D5
:1005B00084918823D1F090E0880F991FFC01E45EBC
:1005C000FD4FA591B491FC01E856FC4FC591D49123
:1005D00061110EC09FB7F8948C91E22FE0958E23A5
:1005E0008C932881E223E8839FBFDF91CF91089508
:1005F0008FB7F894EC91E22BEC938FBFF6CF3FB717
:10060000F8948091C0029091C102A091C202B09171
:10061000C30226B5A89B05C02F3F19F00196A11D66
:10062000B11D3FBFBA2FA92F982F8827BC01CD013C
:10063000620F711D811D911D43E0660F771F881F9A
:10064000991F4A95D1F708958F929F92AF92BF92CA
:10065000CF92DF92EF92FF924B015C010E94FF026A
:100660006B017C010E94FF026C197D098E099F09B4
:10067000683E734081059105A8F321E0821A910834
:10068000A108B10888EEC80E83E0D81EE11CF11C59
:1006900081149104A104B10429F7FF90EF90DF9039
:1006A000CF90BF90AF909F908F9008952FB7F89400
:1006B0006091BC027091BD028091BE029091BF0218
:1006C0002FBF0895CF92DF92EF92FF920F931F9367
:1006D000CF93DF93D1E005E411E080916303909123
:1006E0006403DC01ED91FC910084F185E02D099516
:1006F000181619060CF070C080917E0390917F034C
:10070000019609F069C08091630390916403DC0154
:10071000ED91FC910284F385E02D0995C82FE091BD
:100720007A03F0917B038081882309F44DC0C813BC
:100730004BC0CF01019690937B0380937A03818114
:1007400081110FC0D093750381E793E00E941102DD
:1007500010937D0300937C0310937B0300937A0333
:10076000BCCF0E9456036B017C0180916303909182
:100770006403DC01ED91FC910084F185E02D099585
:10078000892B59F40E9456036C197D098E099F0923
:100790006A3071058105910540F380916303909162
:1007A0006403DC01ED91FC910084F185E02D099555
:1007B000892B09F092CF80917A0390917B03019766
:1007C00090937B0380937A038C2FCC0F990B90939B
:1007D0007F0380937E0381CFDF91CF911F910F9193
:1007E000FF90EF90DF90CF900895CF92DF92EF923D
:1007F000FF920F931F93CF9391E0982790936D03EF
:1008000020916F03309170032F3F3207D1F0C82F32
:1008100061E0822F0E94CE02CC23D9F08AE093E0DF
:100820000E94110261E080916F030E94A0020E9469
:1008300056036093760370937703809378039093C5
:100840007903CF911F910F91FF90EF90DF90CF90A0
:1008500008950E945603009176031091770320912A
:10086000780330917903DC01CB01801B910BA20B43
:10087000B30B803D27E09207A105B10570F400EDB0
:1008800017E020E030E068017901C81AD90AEA0AC5
:10089000FB0AC701B6010E94240381E293E00E9493
:1008A000110260E080916F03CF911F910F91FF9033
:1008B000EF90DF90CF900C94A0028F929F92AF9216
:1008C000BF92CF92DF92EF92FF925C010E9456039B
:1008D0006B017C0128EE33E0D5010E94E01B4B0147
:1008E0005C010E9456036C197D098E099F096815E9
:1008F00079058A059B0570F40E947202882389F3AA
:1009000080E0FF90EF90DF90CF90BF90AF909F90EE
:100910008F90089581E0F5CFAF92BF92CF92DF9292
:10092000EF92FF920F931F93CF93DF936C017B01A4
:100930008B01040F151FEB015E01AE18BF08C01735
:10094000D10759F06991D601ED91FC910190F081A8
:10095000E02DC6010995892B79F7C501DF91CF916B
:100960001F910F91FF90EF90DF90CF90BF90AF90CD
:100970000895FC01538D448D252F30E0842F90E0A5
:10098000821B930B541710F0CF960895019708958A
:10099000FC01918D828D981761F0A28DAE0FBF2F53
:1009A000B11D5D968C91928D9F5F9F73928F90E0A9
:1009B00008958FEF9FEF0895FC01918D828D981718
:1009C00031F0828DE80FF11D858D90E008958FEF55
:1009D0009FEF0895FC01918D228D892F90E0805C1E
:1009E0009F4F821B91098F739927089586EC92E09F
:1009F0000E94EA0421E0892B09F420E0822F089567
:100A000080E090E0892B29F00E94F60481110C947B
:100A100000000895FC01A48DA80FB92FB11DA35AA1
:100A2000BF4F2C91848D90E001968F739927848F0E
:100A3000A689B7892C93A089B1898C918370806431
:100A40008C93938D848D981306C00288F389E02DD2
:100A500080818F7D80830895EF92FF920F931F9383
:100A6000CF93DF93EC0181E0888F9B8D8C8D981361
:100A70001AC0E889F989808185FF15C09FB7F8946D
:100A8000EE89FF896083E889F989808183708064B9
:100A900080839FBF81E090E0DF91CF911F910F9104
:100AA000FF90EF900895F62E0B8D10E00F5F1F4F13
:100AB0000F731127E02E8C8D8E110CC00FB607FC22
:100AC000FACFE889F989808185FFF5CFCE010E94B0
:100AD0000A05F1CFEB8DEC0FFD2FF11DE35AFF4F0F
:100AE000F0829FB7F8940B8FEA89FB89808180623E
:100AF000CFCFCF93DF93EC01888D8823B9F0AA89FB
:100B0000BB89E889F9898C9185FD03C0808186FDC8
:100B10000DC00FB607FCF7CF8C9185FFF2CF808117
:100B200085FFEDCFCE010E940A05E9CFDF91CF917D
:100B30000895CF93DF93EC018A859B85AC85BD85B5
:100B40008E839F83A887B9870E9456036A837B831D
:100B50008C839D8381E089838883DF91CF91089581
:100B6000CF93DF93EC018E819F81A885B9858A831D
:100B70009B83AC83BD830E9456036A877B878C87E7
:100B80009D8781E089838883DF91CF9108952091AB
:100B90002A0230912B022817390771F4909128020C
:100BA00080912902981741F0E0912802F0E0E85185
:100BB000FE4F808190E008958FEF9FEF0895089594
:100BC000EF92FF920F931F93CF93DF93DC015C961C
:100BD000ED90FC905D97E114F10479F481E090E0F0
:100BE00013969C938E93129790E080E0DF91CF91C3
:100BF0001F910F91FF90EF9008955196ED91FC9108
:100C0000529750968C915097982F90950FB75E966B
:100C10002C915E97122F127021FD6095F89420811F
:100C2000112319F1282B2083E7012197F1F728E000
:100C3000462F50E0308160FF1AC0382B3083E70127
:100C40002197F1F7BA0175956795215089F711231E
:100C500081F08081892380830FBF5C968D919C9168
:100C60000197F1F781E090E0C1CF2923DCCF392350
:100C7000E5CF9081892BEFCF20912A0230912B0272
:100C80002817390761F4809129022091280290E009
:100C9000805C9F4F821B91098F739927089590E084
:100CA00080E0089520912A0230912B0228173907FD
:100CB000B9F49091280280912902981789F0E09167
:100CC0002802F0E0E851FE4F80812091280230E0B8
:100CD0002F5F3F4F2F7333272093280290E0089512
:100CE0008FEF9FEF089590E080E008952F923F925C
:100CF0004F925F926F927F928F929F92AF92BF922C
:100D0000CF92DF92EF92FF920F931F93CF93DF93D7
:100D100000D000D000D0CDB7DEB77C015B016A0106
:100D2000190187E493E00E941102F1018191811180
:100D3000FDCF84E493E00E941102E114F10431F04C
:100D4000A50170E060E0C7010E94881D92E0C11417
:100D5000D10409F090E080E09D838E8380E493E0ED
:100D60000E9411020E9456032B013C01912C812C00
:100D700010E000E00E9456039B01AC0124193509E4
:100D80004609570929833A834B835C83A091670303
:100D9000B091680328EE33E00E94E01B29813A817C
:100DA0004B815C81261737074807590708F0B7C001
:100DB0000E9472028111B3C00E94620380917A0383
:100DC00090917B0320917C0330917D03821B930BD8
:100DD00021E030E040917E0350917F034F3F5F4F11
:100DE00011F430E020E0820F931F1816190614F654
:100DF0000E94620340917A0350917B03E0917C034F
:100E0000F0917D03E417F50750F59F012F5F3F4FE9
:100E100030937D0320937C0380814217530751F464
:100E2000E5E4F1E0F0937D03E0937C03F0937B0332
:100E3000E0937A03082E000C990B282FC114D104DB
:100E400071F14D815E8141155105B9F04130510577
:100E500009F43FC082E090E09E838D8320C08091A2
:100E60007E0390917F038F3F980739F32FEF3FEF79
:100E700030937F0320937E03DDCFF601E00FF11F57
:100E8000808128131DC00F5F1F4FF601E00FF11F77
:100E900091E080E03081311190E09D838E83F101FB
:100EA000E80DF91D8081281331C05FEF851A950A7E
:100EB000F101E80DF91D808181117ECF81E030C004
:100EC00091E080E0F6013081321390E0092F182F75
:100ED000E6CFE114F10419F38D3071F0F2E0AF16B2
:100EE000B1047CF0F7018083F1E0AF1AB108A701EB
:100EF0004F5F5F4F7A01D3CFE2E0F0E0FE83ED83F6
:100F0000CECF42E050E05E834D83C9CF91E080E0D8
:100F1000F1013081321390E0892E982E4DCF80E080
:100F200026960FB6F894DEBF0FBECDBFDF91CF91EE
:100F30001F910F91FF90EF90DF90CF90BF90AF90F7
:100F40009F908F907F906F905F904F903F902F90E9
:100F50000895CF93DF93EC018CE393E00E9411029C
:100F6000FE0181918111FDCF89E393E00E9411027E
:100F70002097B1F08091630390916403FE0101908A
:100F80000020E9F73197AF014C1B5D0BDC01ED91BF
:100F9000FC910280F381E02DBE01DF91CF91099495
:100FA000DF91CF910895CF92DF92EF92FF920F934E
:100FB0001F93CF93DF93CDB7DEB72E970FB6F8947C
:100FC000DEBF0FBECDBF82EF92E00E941102809182
:100FD0006D03882309F401C181E00E94F5030E949A
:100FE00056036B017C010E9456036C197D098E0922
:100FF0009F09643F71408105910538F40E94720297
:10100000882389F384E090E04FC00E9456036B016F
:101010007C010E9456036C197D098E099F09603876
:10102000794A8340910508F0DBC041E061E08EEE33
:1010300092E00E9417022AEC31E050E040E070E0BC
:1010400060E090E080E00E947606182F0E94720215
:101050008111D8CF1123E9F286E0E1E0F1E0DE0171
:10106000199601900D928A95E1F78E01075F1F4F47
:101070007E012FE0E20EF11CF801819191918F0128
:101080000E94A9072AEC31E050E040E070E060E007
:1010900090E080E00E947606811115C00E947202E5
:1010A0008111B0CF83E090E02E960FB6F894DEBFAA
:1010B0000FBECDBFDF91CF911F910F91FF90EF90A9
:1010C000DF90CF900895E016F106B1F689EC92E03A
:1010D0000E94110280917403811151C087EB92E04C
:1010E0000E9411028DEB92E00E9411028091740324
:1010F000811148C08DE992E041E061E00E94170251
:101100002AEC31E050E040E070E060E090E080E008
:101110000E947606882309F4C1CF41E061E086E2AF
:1011200092E00E9417022AEC31E041E651E068E0CB
:1011300070E0CE0101960E947606811126C00E94C1
:10114000720288E892E00E94110281E080937303AA
:101150008CE592E00E9411028091730381113AC0E4
:101160008FE292E00E9411028FE492E00E9411024D
:1011700085E392E00E94110290E080E095CF8CEB35
:1011800092E0AECF8AEA92E0B7CF83E792E00E9486
:101190001102FE01319681918111FDCF80E792E02D
:1011A0000E9411028981843599F68A81813481F601
:1011B0004AE050E070E060E0CE0103960E94D31850
:1011C00021E0693C72438105910508F020E02093FD
:1011D0007303BECF84E392E0C5CF81E090E064CF9B
:1011E00089ED92E00E94110285E090E05DCF2F92A0
:1011F0003F924F925F926F927F928F929F92AF92A7
:10120000BF92CF92DF92EF92FF920F931F93CF93F3
:10121000DF93D82FC92F8B010E94BE1924E630E03E
:1012200040E050E00E94BE1B49019B01AC0160E818
:1012300076E988E990E00E94AE1B6B017C01F80121
:1012400091828082ED2FFC2F2191822F022E000CA3
:10125000990BC0970A97C0F32E3239F51F0180E829
:10126000882E86E9982E88E9A82EB12C9AE0492E7E
:10127000512C612C712CF101C1911F010C2E000C1D
:10128000DD0BE097CA30D10580F4C501B401A3019C
:1012900092010E94BE1B49015A01DE010E94741D89
:1012A000C60ED71EE81EF91EE6CFA5E0B0E0A701E6
:1012B00096010E94E71B6F5F7F4F8F4F9F4F23E088
:1012C00030E040E050E00E94BE1BF80122833383EF
:1012D000448355831682DF91CF911F910F91FF9028
:1012E000EF90DF90CF90BF90AF909F908F907F90C6
:1012F0006F905F904F903F902F9008951F93CF93E2
:10130000DF93EC0118811D3209F42196CE010E9471
:10131000BE199B01AC01A4E6B0E00E94E71BAB0143
:10132000BC01FE012991822F022E000C990BC0975F
:101330000A97B8F32E3231F58181082E000C990BF3
:10134000C0978A309105F0F4AAE0A89F9001A99F68
:10135000300D1124C901330FAA0BBB0B480F591FC5
:101360006A1F7B1F8281082E000C990BC0978A3060
:10137000910540F4092E000CAA0BBB0B480F591F16
:101380006A1F7B1F1D3239F4709560955095419509
:101390005F4F6F4F7F4FCB01BA01DF91CF911F910C
:1013A0000895EF92FF920F931F93CF93DF9312E074
:1013B000D1E08DE294E00E943C06892B09F4C8C27A
:1013C0008DE294E00E945206C82F80911D049091F6
:1013D0001E04A0911F04B09120040196A11DB11D0F
:1013E00080931D0490931E04A0931F04B0932004C7
:1013F000C43209F484C2E0911704C5320CF0BDC0B8
:10140000CA3019F0CD3009F087C2EF3008F032C190
:10141000F0E0EA5FFB4F108280910504882309F415
:1014200037C120910604822F022E000C990B3FEB4E
:10143000320F363008F0ADC0C7978295807F90910B
:101440000704292F092E000C330B4FEB490F4630B0
:1014500008F0A7C027533109820F90910404891323
:10146000F6C08091290490912A04A0912B04B09198
:101470002C040196A11DB11D8093290490932A0488
:10148000A0932B04B0932C0480911804882399F026
:101490008091210490912204A0912304B09124040E
:1014A0000196A11DB11D8093210490932204A09365
:1014B0002304B093240400911504002309F47AC096
:1014C0000130A1F582EA93E00E94B00580EB93E041
:1014D0000E94B00580911804882341F187E0E0E97B
:1014E000F3E0A2E8B3E001900D928A95E1F787E07E
:1014F000E7E9F3E0A9E8B3E001900D928A95E1F7FE
:101500000E94560360939E0370939F038093A003F1
:101510009093A10300938103009380038EEB93E0EB
:101520000E9499058CEC93E00E949905E0901B04C1
:10153000F0901C04E114F10409F49CC0E0911B0438
:10154000F0911C0466A177A1F70186A197A10E94E2
:101550009A1D892B09F08EC0B701C70140960E94E1
:10156000A31D0E945603F70160A371A382A393A356
:10157000D5A3D4A3E2A4F3A4DDCFCA3209F445CFA6
:10158000CC3209F0C9C1809104048C2780930404F3
:101590003CCF2156263018F4875591094ECFC0977D
:1015A0004CCF9156963018F42755310955CF20531A
:1015B000310952CF80EB93E00E94B005809118046E
:1015C000882321F187E0E0E9F3E0A2E8B3E00190AD
:1015D0000D928A95E1F787E0E7E9F3E0A9E8B3E047
:1015E00001900D928A95E1F70E94560360939E0345
:1015F00070939F038093A0039093A103D0938103E2
:10160000D09380038AED93E00E9499058091F203C4
:101610009091F303A091F403B091F5038093EE034E
:101620009093EF03A093F003B093F1030E9456034D
:101630006093EA037093EB038093EC039093ED03C4
:10164000D093E903D093E80386EF93E06DCF8091C8
:10165000250490912604A0912704B09128040196B6
:10166000A11DB11D8093250490932604A093270407
:10167000B0932804809116048F5F80931604109213
:10168000170481E0CA3209F080E08093050491CE0E
:1016900090911604911144C06EE871E086E094E0E8
:1016A0000E949A1D892B41F064E971E086E094E084
:1016B0000E949A1D892BF1F4D0931504809119048E
:1016C00090911A0490931C0480931B04E0901B04D7
:1016D000F0901C04E114F10469F266E074E0F70193
:1016E00086A197A10E949A1D97FF2AC1F70182A5A2
:1016F00093A5E8CF6AE971E086E094E00E949A1D24
:10170000892B41F060EA71E086E094E00E949A1D26
:10171000892B19F410921504D1CF10931504CECF54
:10172000E0911504E23009F448C080910604882352
:1017300009F443C020E2E29FF0011124E92B319724
:10174000E932F10508F039C0E855F44F0C946E1DEC
:10175000D10B120C190C200C230C510C580C650CDD
:10176000720CDD0BDD0BDD0BDD0BDD0BDD0BDD0BA3
:10177000DD0BDD0BDD0BDD0BDD0BDD0BDD0BDD0B29
:10178000DD0BDD0BDD0BDD0BDD0BDD0BDD0BDD0B19
:10179000D10B0C0C120C190C200C230C2A0C370C3E
:1017A000440C86E094E00E947E096093B603709337
:1017B000B7038093B8039093B903E0901B04F090B3
:1017C0001C0400911604E114F10409F453CFE091D4
:1017D0001B04F0911C0466A177A1F70186A197A1D3
:1017E0000E949A1D892B09F045CFF70120A531A54C
:1017F000802F90E0821793070CF43CCF281739070D
:1018000039F440E150E066E074E0C7010E94AA1D8F
:10181000F701E2A4F3A4D5CF91E0813409F445C0E7
:1018200090E043C060E973E086E094E00E94F7082E
:10183000C4CF91E0833509F090E090939603BDCF3B
:1018400067E973E0F1CF91E0873509F090E090937C
:101850009D03B3CF86E094E00E947E096093C803A5
:101860007093C9038093CA039093CB03A6CF86E0FD
:1018700094E00E947E096093D6037093D70380930F
:10188000D8039093D90399CF86E094E00E94BE19C3
:101890006093A8037093A9038093AA039093AB036A
:1018A0008CCF91E081330CF4BBCF9093180485CF9B
:1018B00086E094E00E94BE196093F2037093F303F4
:1018C0008093F4039093F50378CF86E094E00E9430
:1018D0007E09609300047093010480930204909346
:1018E00003046BCF86E094E00E947E096093E403DA
:1018F0007093E5038093E6039093E7035ECF109225
:1019000017041092160410920404109315041092F8
:101910000504109218044DCDEE3040F481E08E0F96
:1019200080931704F0E0EA5FFB4FC08380910504C9
:1019300081113FCD80910404C827C093040439CDA0
:10194000892B09F497CE10921C0410921B0492CE9E
:10195000DF91CF911F910F91FF90EF9008951F920B
:101960000F920FB60F9211242F933F938F939F9353
:10197000AF93BF938091BC029091BD02A091BE0233
:10198000B091BF023091BB0226E0230F2D3758F5EE
:101990000296A11DB11D2093BB028093BC029093BF
:1019A000BD02A093BE02B093BF028091C00290918D
:1019B000C102A091C202B091C3020196A11DB11D46
:1019C0008093C0029093C102A093C202B093C3025D
:1019D000BF91AF919F918F913F912F910F900FBE2B
:1019E0000F901F90189529E8230F0396A11DB11D94
:1019F000D2CF1F920F920FB60F9211242F933F93C5
:101A00004F935F936F937F938F939F93AF93BF9306
:101A1000EF93FF9386EC92E00E940A05FF91EF910D
:101A2000BF91AF919F918F917F916F915F914F91F6
:101A30003F912F910F900FBE0F901F9018951F92FE
:101A40000F920FB60F9211242F938F939F93EF93C2
:101A5000FF93E091D602F091D7028081E091DC0201
:101A6000F091DD0282FD1BC090818091DF028F5FCB
:101A70008F732091E002821741F0E091DF02F0E0E5
:101A8000EA53FD4F958F8093DF02FF91EF919F9175
:101A90008F912F910F900FBE0F901F9018958081FE
:101AA000F4CF1F920F920FB60F9211242F933F93F2
:101AB0004F935F936F937F938F939F93AF93BF9356
:101AC000EF93FF93E0912A02F0912B02309749F0B7
:101AD000A685B7858585968D91FF14C09C91892335
:101AE000A1F4FF91EF91BF91AF919F918F917F9161
:101AF0006F915F914F913F912F910F900FBE0F907B
:101B00001F9018959C91892361F7A389B4899C91B2
:101B10008589809589238C93868997890197F1F728
:101B2000608D718DA685B785558538E020E0CB01A5
:101B30000197F1F7822F90E095958795282F4C918A
:101B4000452309F02068315091F7868D81FD20955D
:101B50008091290290E001968F7399273091280295
:101B6000381799F0A0912902B0E0A851BE4F2C93EC
:101B700080932902828D938D0197F1F7A389B4890F
:101B80008C919589892B8C93ACCF868D8160868FC3
:101B9000F1CF1F920F920FB60F9211240F900FBE2C
:101BA0000F901F9018951092C9021092C80288EEEB
:101BB00093E0A0E0B0E08093CA029093CB02A093A0
:101BC000CC02B093CD0227E331E03093C7022093DB
:101BD000C60225EC30E03093D3022093D20224ECED
:101BE00030E03093D5022093D40220EC30E03093E3
:101BF000D7022093D60221EC30E03093D902209313
:101C0000D80222EC30E03093DB022093DA0226EC9B
:101C100030E03093DD022093DC021092DF0210925C
:101C2000E0021092E1021092E2022FEF3FEF3093B8
:101C3000C5022093C4021092300410922F048093A6
:101C4000310490933204A0933304B093340483E5B9
:101C500091E090932E0480932D04109244041092EE
:101C600043041092460410924504109248041092C6
:101C7000470410924A041092490460914B046E7F0D
:101C80006D7F60934B046695617081E0682782E008
:101C90000E94A00261E082E00E94CE02E8EBF3E045
:101CA000E491E0933D04E4EAF3E0E491F0E0EE0F28
:101CB000FF1FE856FC4F8591949190933F048093C9
:101CC0003E0460E083E00E94CE0280914B0481FDDF
:101CD00004C061E083E00E94A00283E080933904A5
:101CE000E9EBF3E0E491E0933A04E5EAF3E0E49110
:101CF000F0E0EE0FFF1FE257FC4F85919491909317
:101D00003C0480933B041092800310928103109254
:101D10008303109282031092840310928503109221
:101D20008603109287031092880310928A03109200
:101D3000890310928B0310928C0310928D031092E2
:101D40008E0310928F0310929103109290031092C1
:101D500092031092930310929403109295031092A1
:101D60009603109298031092970310929903109281
:101D70009A0310929B0310929C0310929D03109261
:101D8000A2031092A3031092A4031092A503109231
:101D9000A6031092A7031092B0031092B103109201
:101DA000B2031092B3031092B4031092B5031092D1
:101DB000BE031092BF031092C4031092C503109289
:101DC000C6031092C7031092CC031092CD03109259
:101DD000D2031092D3031092D4031092D503109221
:101DE000DA031092DB031092E0031092E1031092E9
:101DF000E2031092E3031092E8031092E9031092B9
:101E0000EE031092EF031092F0031092F103109280
:101E1000F6031092F7031092FC031092FD03109248
:101E2000FE031092FF03109204041092050482E056
:101E3000809315041092160410921704109218043F
:101E400010921A041092190410921C0410921B0490
:101E500010921D0410921E0410921F041092200470
:101E60001092210410922204109223041092240450
:101E70001092250410922604109227041092280430
:101E80001092290410922A0410922B0410922C0410
:101E90001092060486EC92E09093640380936303AF
:101EA0008EE190E0909366038093650390936803BE
:101EB000809367038CE291E090936A0380936903B7
:101EC0008FEF9FEF90936C0380936B0321E020933F
:101ED0006D0310926E039093700380936F03909341
:101EE0007203809371032093730310927403109212
:101EF0007503109276031092770310927803109274
:101F0000790325E431E030937B0320937A03309307
:101F10007D0320937C0390937F0380937E03089539
:101F2000CF93DF93CDB7DEB7CA54D1090FB6F8947B
:101F3000DEBF0FBECDBF789484B5826084BD84B50A
:101F4000816084BD85B5826085BD85B5816085BDB4
:101F500080916E00816080936E001092810080916C
:101F600081008260809381008091810081608093F4
:101F70008100809180008160809380008091B10019
:101F800084608093B1008091B00081608093B00044
:101F900080917A00846080937A0080917A008260D8
:101FA00080937A0080917A008E7F80937A0080916E
:101FB0007A00806880937A001092C100E091D60286
:101FC000F091D70282E08083E091D202F091D302B7
:101FD0001082E091D402F091D50283E380831092C5
:101FE000DE02E091DA02F091DB0286E08083E0918C
:101FF000D802F091D902808180618083E091D8027B
:10200000F091D902808188608083E091D802F091BC
:10201000D902808180688083E091D802F091D90252
:1020200080818F7D80831092480410924704109223
:1020300046041092450410924404109243048DEC1F
:1020400090E090934A04809349049091390496312A
:1020500008F047C025E530E0309344042093430462
:102060002BEC30E0309346042093450420E930E027
:1020700030934804209347042091680084E098300E
:1020800048F031E09E3008F430E081E001C0880F74
:102090003A95EAF7822B809368002DE630E098307D
:1020A00050F02BE630E09E3030F02CE630E09631F8
:1020B00010F030E020E03093410420934004292FB9
:1020C00030E0983008F0E3C081E001C0880F9A95B5
:1020D000EAF7809342048091490490914A04019761
:1020E000F1F78091470490914804892B49F1E091E0
:1020F0002A02F0912B0224E0ED32F20709F1309729
:1021000039F0A389B4899C918589809589238C9322
:1021100080914B048E7F80934B0410922902109281
:1021200028028DE294E090932B0280932A02E091A2
:102130004004F0914104808190914204892B808376
:1021400068EE73E080E090E00E94240361E08DE09F
:102150000E94CE0260E086E00E94CE0260E087E04E
:102160000E94CE0260E088E00E94CE028CE2E7E0AE
:10217000F1E0AE014F5F5F4F27965FAF4EAF2797FD
:10218000DA0101900D928A95E1F70E9456034B0106
:102190005C017E015DE2E50EF11C7724739472E030
:1021A000672E6E0185E3C80ED11C80912C0281112F
:1021B0009CC08E010F5F1F4FD8016D918D018DE284
:1021C00094E00E94E0050E151F05B1F742E050E0D3
:1021D0006CEC71E08DE294E00E948C040E94560346
:1021E0001B012C01B5EBBDA7E2E6EEA7F5E0FFA7CA
:1021F00078AA69AA1AAA8B818BAB8C818CAB1DAA99
:102200001EAAFE01BF9681919DA9890F8DAB9EA943
:10221000890F8EABEC15FD05B1F710E01A3008F40C
:1022200044C081E080932C020E945603681979090A
:102230008A099B09613177428105910508F4B5CF80
:102240000E9456036B017C010E9456036C197D09A4
:102250008E099F0960367A4E8105910508F048C0C5
:102260000E94D10961E08DE00E94A00264E170E06B
:1022700080E090E00E94240360E08DE00E94A002D4
:1022800068EE73E080E090E00E942403DDCF9E3092
:1022900040F42850310981E001C0880F2A95EAF7FF
:1022A00018CF2E503109F7CF10E00E945603621963
:1022B000730984099509693B7B408105910598F470
:1022C0008DE294E00E943C06892B09F4A7CF8DE2B1
:1022D00094E00E945206F701E10FF11D90819813DE
:1022E000E3CF1F5F9BCF80E09DCF10922C02A8CF41
:1022F0008AE090E0909366038093650380916E037B
:1023000081110CC081E080936E030E94D30710926C
:102310006E03892BF1F080E00E94F50302E310E0E8
:1023200061E08DE00E94A00264E670E080E090E051
:102330000E94240360E08DE00E94A00264E670E049
:1023400080E090E00E9424030150110949F7F80150
:10235000099560E08DE00E94A0020E945603009162
:10236000B7021091B8022091B9023091BA02601BF5
:10237000710B820B930B6938734181059105C0F095
:102380000E9456036093B7027093B8028093B9021B
:102390009093BA0261E08DE00E94A00264E170E0D7
:1023A00080E090E00E94240360E08DE00E94A002A3
:1023B0000E9456030091B3021091B4022091B5021D
:1023C0003091B6026B017C01C00ED11EE21EF31EDD
:1023D0002B96CCAEDDAEEEAEFFAE2B9721E9C2164A
:1023E0002FECD20622E1E20621E0F20608F054C00A
:1023F00031E1C31634E0D3063EE6E306F10408F00B
:1024000052C041E9C41645E1D40647E3E406F104AD
:1024100008F051C051EDC5165EE4D50659E0E50659
:10242000F10408F450C060EEC62E63E9D62E64E0D5
:10243000E62EF12C8091000181114CC08091AF02F9
:102440009091B002A091B102B091B2022B962CAD46
:102450003DAD4EAD5FAD2B97821B930BA40BB50B1F
:102460008C0D9D1DAE1DBF1D89399A43A105B10577
:102470008CF10E9456034B015C010E9456036819BF
:1024800079098A099B09683C71058105910508F065
:102490006FC10E94D109F1CFC12C5DEDD52E5DE653
:1024A000E52EF12CC7CF40E8C42E4EEED42E46E3E5
:1024B000E42EF12CBFCF30EAC32E3BEBD32E3DE010
:1024C000E32EF12CB7CF20E6C22E2AEED22EE12C3D
:1024D000F12CB0CF0E94D1098091000181111AC066
:1024E0008091AF029091B002A091B102B091B2027E
:1024F0002B962CAD3DAD4EAD5FAD2B97281B390B08
:102500004A0B5B0BDA01C9018C159D05AE05BF05B1
:102510000CF421C160E088E00E94CE0268EE73E016
:1025200080E090E00E94240380916E0381110CC032
:1025300081E080936E030E94D30710926E03892B73
:1025400019F080E00E94F50381E4EEE6F2E0DF019D
:10255000282F1D922A95E9F7EDE2F2E0DF011D92A6
:102560008A95E9F710928103609184037091850345
:1025700080918603909187030E94E01C28E23BE64D
:102580004EE65EE40E946E1C4B015C01609182038A
:102590007091830390E080E00E94E01C9B01AC01FD
:1025A000C501B4010E94021C4B015C0180918803AB
:1025B000882321F0B7FAB094B7F8B09460918B03F8
:1025C00070918C0380918D0390918E030E94E01C8A
:1025D00028E23BE64EE65EE40E946E1C2B013C01C5
:1025E0006091890370918A0390E080E00E94E01C72
:1025F0009B01AC01C301B2010E94021C2B013C01F2
:1026000080918F03882321F077FA709477F8709483
:102610001092DB036091E0037091E1038091E2038B
:102620009091E3030E94E21C20E030E048EC52E489
:102630000E946E1C162F072F382E292E0E9456033B
:102640002F923F920F931F937F926F925F924F92C0
:10265000BF92AF929F928F921F9221E12F939F93EF
:102660008F937F936F9386EA91E09F938F938EE68B
:1026700092E09F938F930E94B91D0FB6F894DEBF2E
:102680000FBECDBF80916E03811137C081E0809372
:102690006E0386E092E00E94110280916D03811129
:1026A0002AC06DE070E08EE692E00E948F1D0097D8
:1026B00011F0DC011C928EE692E0FC0101900020FA
:1026C000E9F7CF018F56924085359140A0F441E063
:1026D00061E08CEF91E00E9417022DEB31E050E0B9
:1026E00040E070E060E090E080E00E9476068111BA
:1026F0008DC00E94720210926E03B0EACB16BBEB43
:10270000DB06BDE0EB06F10440F061E088E00E94EA
:10271000CE0260E088E00E94A00261E08DE00E94AD
:10272000A0026CE370E080E090E00E94240360E08F
:102730008DE00E94A0022B96CCACDDACEEACFFACE1
:102740002B97C092AF02D092B002E092B102F09209
:10275000B2021092000180E090E0892B09F4FDCDD7
:102760000E94F604882309F4F8CD0E940000F5CDFC
:10277000F89484B7877F84BF8091600088618093DC
:10278000600087E0809360008091600080648093A7
:102790006000789483B7817F846083BF83B7816052
:1027A00083BF889583B78E7F83BF83B78E7F83BFB8
:1027B0008091C4029091C5028F3F980791F09C01CF
:1027C000220F331F220F331F207287708860822BE5
:1027D00098E10FB6F894A895909360000FBE80938F
:1027E00060008091B3029091B402A091B502B091C3
:1027F000B6028053984FAF4FBF4F8093B302909370
:10280000B402A093B502B093B60266CE8EE692E013
:102810000E94A90785E891E00E94A90725EC31E014
:1028200050E040E070E060E090E080E00E947606DA
:10283000882309F45ECF0E9456034B015C011E0100
:1028400029E3220E311C0E9456032B013C0148183B
:1028500059086A087B08A0916903B0916A0328EEC1
:1028600033E00E94E01B461657066806790608F01A
:10287000E3C0809173038823E1F041E061E08AE6E0
:1028800091E00E9417022AEC31E04FEC51E068E140
:1028900070E0CE0101960E947606882309F429CFC4
:1028A0008981082E000C990B0E947C1D892B09F44C
:1028B000BCC025961FAE1EAE259723961FAE1EAE3A
:1028C000239721961FAE1EAE21971EAE1DAE1CAEE5
:1028D0001BAE1AAE19AE41E061E084E791E00E94C0
:1028E00017022AEC31E048ED51E060E270E0CE01E1
:1028F00001960E947606882309F4FBCE43E450E05B
:102900004C0F5D1F5EA74DA781E490E08C0F9D1FCB
:1029100098AB8FA7AFE3B0E0AC0FBD1FBAABA9ABCC
:10292000EDE3F0E0EC0FFD1FFCABEBAB2BE330E095
:102930002C0F3D1F3EAB2DAB38AE2FAA3E013DE222
:10294000630E711C10E000E026968FAD2697279647
:102950009FAD27970115110511F080E090E061EE21
:1029600071E00E94D11A009709F4C5CE0E94BE19E9
:10297000D301ED91FD913D01718360830F5F1F4F86
:102980000630110509F78CEE91E00E9411022596A0
:102990008FAD25978F9324968FAD24978F9324EE38
:1029A00031E03F932F9381E090E08C0F9D1F9F9328
:1029B0008F930E94B91DFE0131960F900F900F90DA
:1029C0000F900F900F9081918111FDCF89EE91E0D2
:1029D0000E94110225968EAD9FAD259785309105F9
:1029E00058F488ED91E00E94110289AD9AAD909360
:1029F0006C0380936B037FCE9C012D7F2C303105BF
:102A000011F0409729F489EC91E00E94110273CEF5
:102A10008CEA91E00E941102809165039091660317
:102A20000E945D0481110FCF66CE8FE891E00E9475
:102A300011028AE090E0F4CF8EE791E0E6CF83E5E3
:102A400091E090932E0480932D0480912A0290911E
:102A50002B028D52944071F4E0914004F0914104B6
:102A600090818091420480958923808310922B026B
:102A700010922A020895AFE0B0E0E1E4F5E10C9491
:102A80009C186C011B015A01FC011782168283817C
:102A900081FF48C39E012F5F3F4F4901F60193819B
:102AA000F10193FD859193FF81911F01882309F422
:102AB000E7C2853239F493FD859193FF81911F011F
:102AC000853239F4B60190E00E941D1B3501530197
:102AD000E5CFF12C512C00E0003238F48B3209F1B3
:102AE00090F48032F9F0833209F107FD34C020ED13
:102AF000280F2A3020F506FF1BC0FAE0FF9E200DAC
:102B00001124F22E05C08D3279F0803371F7016007
:102B1000F10193FD859193FF81911F018111DCCF1C
:102B20001AC002600460F4CF0860F2CF0061F0CFF9
:102B30003AE0539E200D1124522E0062E9CF8E32CE
:102B400021F406FD9DC20064E3CF8C3611F40068C9
:102B5000DFCF8836E9F29BEB980F933008F05FC027
:102B60000061805E06FD02C046E0F42E102F1F7348
:102B7000853609F05BC0106417FF61C08F2D9BE3A1
:102B80009F1508F48BE344244394480E27E0350155
:102B9000F4E06F0E711CF501608171818281938177
:102BA000042DA4010E94E5195C01F981FC87F0FF66
:102BB00003C00DE2F3FF07C00BE211FD04C0012FBB
:102BC000047012FD00E22C852C70E22E09F457C02F
:102BD0000111ABC2F3E0E12CF515A0F483E0E52C84
:102BE000E81A13FD08C0B60180E290E00E941D1BA8
:102BF000EA94E110F8CF002329F0B601802F90E08D
:102C00000E941D1B3C8528E6A22E20E0B22E33FD3B
:102C100004C09CE6A92E90E0B92E107122C09BE959
:102C2000980F933008F033C10F7E9CCF863611F495
:102C30001068A2CFFF2009F49FCFFA949DCFE7E060
:102C40002F2DEF1518F427E037E0F32E412C9FCFFE
:102C500011118052B60190E00E941D1B8FEFA81A3F
:102C6000B80AF50184918111F3CFEE2009F42FCF3A
:102C7000B60180E290E00E941D1BEA94F6CF17FF98
:102C80006FC04A0CFC85F4FF04C08A81813309F4CB
:102C90004A9414140CF086C028E0241510F488E03F
:102CA000482E85E090E017FF06C0C501B7FE02C0C0
:102CB00090E080E0019601110196FF2031F02F2D68
:102CC00030E02F5F3F4F820F931F5816190619F0FF
:102CD00014F0E52CE81A812F897011F4E11067C017
:102CE000002329F0B601802F90E00E941D1B13FDE8
:102CF00002C0E11063C017FF7CC08501B7FE02C0AF
:102D000010E000E0C501841991092C016F2D70E0DD
:102D1000EE27FF27E61BF70BFF87EE870F3F100715
:102D200029F4B6018EE290E00E941D1BA016B106A8
:102D30000CF44BC0401651060CF047C0F501E01BE7
:102D4000F10BE80DF91D8181015011092E853F8598
:102D500002171307E4F1B60190E00E941D1BDECFBD
:102D600016FD9FCFEF2DF0E0EA15FB0534F03CEFA8
:102D7000A3163FEFB3060CF010683296E80DF91D6C
:102D800001C0FA94FF2019F082918033D1F317FF2C
:102D900088CF442443944F0CFA141B0431F02CF0D8
:102DA000FA187FCF442443947CCFF12C7ACFB6011C
:102DB00080E290E00E941D1BEA9490CFB60180E370
:102DC00090E00E941D1BEA9494CF80E3BDCFA01633
:102DD000B10641F49A81963350F4953319F43C8549
:102DE00034FF05C0B60190E00E941D1B3ECF81E379
:102DF000F9CF8A81813319F09C859F7E9C87B6012B
:102E000090E00E941D1BFF20A9F0B6018EE290E029
:102E10000E941D1BF394F394E2E001E00E0FE80D15
:102E2000F92DF11D8081B60190E00E941D1BE02F5D
:102E30000F11F3CF85E690E014FF02C085E490E027
:102E4000B6010E941D1BB7FC06C0A114B104C1F459
:102E5000EC85E4FF15C0B194A194B1088DE2B601F0
:102E600090E00E941D1B80E32AE0A216B10454F4F6
:102E7000B60190E00E941D1BB601C501C096B4CFFB
:102E80008BE2EDCF8F5FFAE0AF1AB108EDCF83365A
:102E9000C9F0833771F1833509F05BC03501F2E089
:102EA0006F0E711CF501A080B1806F2D70E006FDE2
:102EB00002C06FEF7FEFC5010E94C61A9D878C8705
:102EC00000680DC0350132E0630E711CF501808190
:102ED000898321E030E03D872C8754010F7703FD83
:102EE00006C02C853D855216130609F0A8F4E52C82
:102EF0002BC0350132E0630E711CF501A080B1805A
:102F00006F2D70E006FD02C06FEF7FEFC5010E94DC
:102F1000D61A9D878C87E2CFB60180E290E00E94AE
:102F20001D1B5A94DECFF50107FD859107FF8191A6
:102F30005F01B60190E00E941D1BE110EA948C85B0
:102F40009D8501979D878C87EC85FD85EF2B59F733
:102F50008CCE843619F0893609F074C0350107FF2C
:102F600066C0F4E06F0E711CF50160817181828191
:102F70009381102F1F7697FF08C0909580957095CC
:102F800061957F4F8F4F9F4F10682AE030E0A4017A
:102F90000E944D1BA82EA818BA2C012F16FF0AC09C
:102FA0000E7FAF1438F414FF04C012FD02C0012FCD
:102FB0000E7EBF2C04FF8EC0FE01EA0DF11D808144
:102FC000803309F080C0097EF02FF870EF2E03FDEA
:102FD00090C000FF8AC0FA2CB51410F4F50CFB1851
:102FE00004FF8DC0B60180E390E00E941D1B02FF2C
:102FF00009C088E790E001FF02C088E590E0B601D3
:103000000E941D1BAF1408F486C0AA940A2D10E07C
:103010000F5F1F4F080D191DF80182918F01B60136
:1030200090E00E941D1B80169106B1F71ECEF2E0C3
:103030006F0E711CF50160817181072E000C880BE9
:10304000990B97CF102F8537A9F41F7E2AE030E027
:10305000350117FF2FC0F4E06F0E711CF501608180
:10306000718182819381A4010E944D1BA82EA81812
:103070001F7792CF197F8F36D1F048F4883591F0C1
:10308000F601868197812F96E2E10C94B81880377B
:1030900039F08837A9F714FD146020E130E0D8CF6B
:1030A0001061F9CF04FD166020E132E0D1CF28E0B5
:1030B00030E0CECFF2E06F0E711CF50160817181BE
:1030C00090E080E0D0CF02FD02C0B3947DCFB394F6
:1030D000B3947ACF802F867809F476CFF6CFB601F5
:1030E00080E290E00E941D1BB394B514C0F3E12C64
:1030F00077CFE52CEB18B51408F472CFF8CF802FFA
:10310000867809F47FCF8BE201FF80E207FD8DE234
:10311000B60190E075CFB60180E390E00E941D1BE0
:10312000FA9470CF8FEF9FEFAECF24E0E12C2515FE
:1031300008F063CD84E053CD2F923F924F925F927F
:103140006F927F928F929F92AF92BF92CF92DF92B7
:10315000EF92FF920F931F93CF93DF93CDB7DEB71C
:10316000CA1BDB0B0FB6F894DEBF0FBECDBF0994B0
:103170002A88398848885F846E847D848C849B8407
:10318000AA84B984C884DF80EE80FD800C811B8115
:10319000AA81B981CE0FD11D0FB6F894DEBF0FBE44
:1031A000CDBFED010895B0E0A0E0E9EDF8E10C94A9
:1031B0009D185C016B017A016115710519F0FB0125
:1031C00091838083E114F10449F0C701029783974A
:1031D00028F060E070E0CB019CC05E01E501219623
:1031E000F5011081812F90E00E94BD1A892BA9F76B
:1031F0001D3209F056C02196F501118101E0E1145C
:10320000F10409F4AEC0F0E1EF16F10409F08EC04C
:10321000103341F488818F7D883509F083C019818E
:1032200022960260E0E1EE2EF12C88248A94982CFC
:10323000A82CFFE0BF2E20E060E070E0CB0127016A
:103240000F2C000C66087708FE0150ED352E310E6C
:1032500039E0331538F43FEB310F3A31A0F549EC42
:10326000342E310E3E141F04BCF52F3FB9F08616E4
:103270009706A806B90670F1A30192010E94AE1B41
:10328000232D30E050E040E0620F731F841F951F34
:103290006217730784079507E8F021E021961081F3
:1032A000D3CF1B3221F4E5012296F501118100E014
:1032B000A6CF78E0E72EF12C88248A94982CA82CAD
:1032C0006FE1B62EB8CF3FE9310F3A3128F439EA31
:1032D000332EC7CF2FEFE2CFC114D10431F0222318
:1032E000E9F02197F601D183C08300FF07C09095D4
:1032F0008095709561957F4F8F4F9F4F2F3F49F479
:1033000082E290E090934F0480934E046FEF7FEF42
:10331000CB01CDB7DEB7E1E10C94B91801FFE5CFE1
:103320002297E0CF10E3E114F10419F23AE0E3163A
:10333000F104E9F080E1E816F10409F473CFE8E064
:10334000EE16F10409F4B8CF6FEF7FEFCB019701D0
:103350000F2C000C440B550B0E94BE1B49015A0157
:103360006ACF103309F456CF9AE0E92EF12C89E99F
:10337000882E982CA82C89E1B82E5DCF1F93FC01D4
:1033800099278827BC01E89411911032E9F319308C
:1033900010F01E30C8F31B3251F01D3249F468940E
:1033A00006C00E94081B610F711D811D911D1191A6
:1033B00010531A30B0F33EF4909580957095619556
:1033C0007F4F8F4F9F4F1F910895283008F027E0BF
:1033D0003327DA01990F311D87FD91600096610551
:1033E000710539F432602E5F3D9330E32A95E1F7A1
:1033F00008959F3F30F080387105610509F03C5F0A
:103400003C5F3D93913008F08068911DDF93CF932E
:103410001F930F93FF92EF92192F987F9695E92FA4
:1034200096959695E90FFF27E653FF4F9927332787
:10343000EE24FF24A701E70105900894079428F4DF
:10344000360FE71EF81E491F511D660F771F881F94
:10345000991F0694A1F70590079428F4E70EF81E2B
:10346000491F561FC11D770F881F991F661F06949D
:10347000A1F70590079428F4F80E491F561FC71F9F
:10348000D11D880F991F661F771F0694A1F705901D
:10349000079420F4490F561FC71FD81F990F661FA6
:1034A000771F881F0694A9F784911095177041F033
:1034B000D695C79557954795F794E7941A95C1F710
:1034C000E0E7F0E06894159015913591659195913C
:1034D00005907FE27395E118F10A430B560BC90B77
:1034E000D009C0F7E10CF11E431F561FC91FD01DA4
:1034F0007EF4703311F48A95E6CFE894015030F0F1
:10350000080F0AF40027021708F4202F2395022F32
:103510007A3328F079E37D932A95E9F710C07D93FB
:103520002A9589F606949795679537951795179478
:10353000E118F10A430B560BC90BD00998F02395FB
:103540007E9173957A3308F070E37C932013B8F77B
:103550007E9170617D9330F0839571E37D9370E38C
:103560002A95E1F71124EF90FF900F911F91CF91D1
:10357000DF91992787FD9095089591110C94AB1BCD
:10358000803219F089508550C8F70895FC010590E4
:10359000615070400110D8F7809590958E0F9F1F55
:1035A00008954CE454E00E94E11A0895FC01615032
:1035B000704001900110D8F7809590958E0F9F1F55
:1035C0000895FA01A191B081009719F41097E1F0E4
:1035D000CD01DC01CD010D90002011F4C00113C01C
:1035E000FB012191222319F02015D9F7F3CFFB011C
:1035F0002191201519F41E92119606C02223C1F7BD
:103600000D900020A1F7D001FA01A193B083089595
:10361000592F482F372F262F660F771F881F991F86
:10362000660F771F881F991F620F731F841F951FD6
:10363000660F771F881F991F08950F931F93CF93CD
:10364000DF93182F092FEB018B8181FD09C01FEF3C
:103650000FEF812F902FDF91CF911F910F91089540
:1036600082FF14C02E813F818C819D8128173907EC
:103670003CF4E881F981CF01019699838883108316
:103680008E819F8101969F838E83E3CFE885F985A4
:10369000812F0995892BA1F3DACFFA01AA272830C7
:1036A00051F1203181F1E8946F936E7F6E5F7F4F0F
:1036B0008F4F9F4FAF4FB1E03ED0B4E03CD0670F8B
:1036C000781F891F9A1FA11D680F791F8A1F911DDE
:1036D000A11D6A0F711D811D911DA11D20D009F42E
:1036E00068943F912AE0269F11243019305D319370
:1036F000DEF6CF010895462F4770405D4193B3E059
:103700000FD0C9F7F6CF462F4F70405D4A3318F0FF
:10371000495D31FD4052419302D0A9F7EACFB4E0B0
:10372000A6959795879577956795BA95C9F7009768
:103730006105710508959B01AC010A2E0694579509
:10374000479537952795BA95C9F7620F731F841F60
:10375000951FA01D0895992788270895DB018F9351
:103760009F930E94E71BBF91AF91A29F800D911D77
:10377000A39F900DB29F900D11240895A1E21A2EDF
:10378000AA1BBB1BFD010DC0AA1FBB1FEE1FFF1F05
:10379000A217B307E407F50720F0A21BB30BE40B55
:1037A000F50B661F771F881F991F1A9469F760959C
:1037B0007095809590959B01AC01BD01CF01089556
:1037C0000E94F21BB7FF0895821B930B08950E947D
:1037D000F21BA59F900DB49F900DA49F800D911D8D
:1037E00011240895A29FB001B39FC001A39F700D43
:1037F000811D1124911DB29F700D811D1124911DF9
:1038000008955058BB27AA270E94191C0C94341DF8
:103810000E94261D38F00E942D1D20F039F49F3F94
:1038200019F426F40C94231D0EF4E095E7FB0C9498
:103830001D1DE92F0E94451D58F3BA176207730733
:103840008407950720F079F4A6F50C94671D0EF413
:10385000E0950B2EBA2FA02D0B01B90190010C01A0
:10386000CA01A0011124FF27591B99F0593F50F4B8
:10387000503E68F11A16F040A22F232F342F442710
:10388000585FF3CF469537952795A795F040539508
:10389000C9F77EF41F16BA0B620B730B840BBAF0D8
:1038A0009150A1F0FF0FBB1F661F771F881FC2F743
:1038B0000EC0BA0F621F731F841F48F48795779557
:1038C0006795B795F7959E3F08F0B0CF9395880F11
:1038D00008F09927EE0F9795879508950E94821C0E
:1038E0000C94341D0E942D1D58F00E94261D40F09E
:1038F00029F45F3F29F00C941D1D51110C94681D93
:103900000C94231D0E94451D68F39923B1F35523A0
:1039100091F3951B550BBB27AA27621773078407E2
:1039200038F09F5F5F4F220F331F441FAA1FA9F378
:1039300035D00E2E3AF0E0E832D091505040E69566
:10394000001CCAF72BD0FE2F29D0660F771F881FC7
:10395000BB1F261737074807AB07B0E809F0BB0BBA
:10396000802DBF01FF2793585F4F3AF09E3F5105CE
:1039700078F00C941D1D0C94681D5F3FE4F3983E95
:10398000D4F3869577956795B795F7959F5FC9F7B7
:10399000880F911D9695879597F90895E1E0660F38
:1039A000771F881FBB1F621773078407BA0720F0B1
:1039B000621B730B840BBA0BEE1F88F7E09508951A
:1039C000E89409C097FB3EF49095809570956195B9
:1039D0007F4F8F4F9F4F9923A9F0F92F96E9BB276F
:1039E0009395F695879577956795B795F111F8CFEB
:1039F000FAF4BB0F11F460FF1BC06F5F7F4F8F4F56
:103A00009F4F16C0882311F096E911C0772321F04B
:103A10009EE8872F762F05C0662371F096E8862FE3
:103A200070E060E02AF09A95660F771F881FDAF73A
:103A3000880F9695879597F9089597F99F6780E87D
:103A400070E060E008959FEF80EC089500240A94F0
:103A50001616170618060906089500240A94121669
:103A60001306140605060895092E0394000C11F49C
:103A7000882352F0BB0F40F4BF2B11F460FF04C049
:103A80006F5F7F4F8F4F9F4F089557FD9058440FA2
:103A9000551F59F05F3F71F04795880F97FB991FAD
:103AA00061F09F3F79F0879508951216130614066A
:103AB000551FF2CF4695F1DF08C0161617061806F7
:103AC000991FF1CF86957105610508940895E894D2
:103AD000BB2766277727CB0197F90895EE0FFF1FC5
:103AE0000590F491E02D0994B7FF0C94E71B0E9418
:103AF000E71B821B930B089591110C94AB1B805311
:103B00008A5028F0865C806281568650B0F708950E
:103B1000DC0101C06D9341505040E0F70895FC0175
:103B20008191861721F08823D9F799270895319735
:103B3000CF010895FB01DC018D91019080190110E6
:103B4000D9F3990B0895FB01DC0101900D9200203F
:103B5000E1F70895FB01DC014150504048F001902D
:103B60000D920020C9F701C01D9241505040E0F76E
:103B70000895AEE0B0E0EFEBFDE10C94AA180D89DA
:103B80001E8986E08C831A8309838FEF9FE79E83CB
:103B90008D83AE01475E5F4F6F89788DCE010196B0
:103BA0000E943B152F813885020F131FF8011082E8
:103BB0002E96E4E00C94C61811E0C6EED1E004C0E5
:103BC000FE010E946E1D2196C73ED107C9F7F894E9
:023BD000FFCF25
:103BD200017A0180018701B56206242400FFFF06F5
:103BE2000300000000102700000500FA00FA00643C
:103BF200002C010000000000000000000000000096
:103C02000016DC000000002C058C04B9047905EADA
:103C120004C804DC0453424452494E470D0A0000D2
:103C2200000000E0058C047306DF053C065206C75F
:103C32000543616C6C2050726F636573736F722001
:103C420056657273696F6E3A2000415445310D001A
:103C520041542644300D004154264B300D0047504C
:103C6200524D4300474E524D430047504747410093
:103C7200474E47474100256C752C25642C252E3470
:103C8200662C252E34662C252E31660D00524541B8
:103C920044590D0A00300D0A0D0A4F4B0D0A002D32
:103CA2004D5353544D3A20002B53424449583A2025
:083CB200002C20002575000024
:00000001FF
